S01E000062742D626F6F746C6F616465722D6170706C6F616465722E733337C3
S315000000000810002087A800008BA8000059A5000052
S315000000108BA800008BA800008BA800008BA800000E
S315000000208BA800008BA8000058C600008BA8000013
S315000000308BA8000008C600008BA800008BA8000053
S315000000408BA800008BA800008BA800008BA80000DE
S315000000508BA800008BA800008BA800008BA80000CE
S315000000608BA800008BA800008BA800008BA80000BE
S315000000708BA800008BA800008BA800008BA80000AE
S315000000808BA800008BA800008BA800008BA800009E
S315000000908BA800008BA800008BA800008BA800008E
S315000000A08BA800007D1600005D1600008BA80000DE
S315000000B08BA80000ED8800008BA80000C591000009
S315000000C015C2000011C20000358900002BC20000D5
S315000000D019C20000959100001DC20000C59B0000DA
S315000000E0C5790000157A0000059200008BA8000073
S315000000F08BA800008BA800008BA800008BA800002E
S315000001008BA800008BA800008BA800008BA800001D
S315000001108BA800008BA800008BA800008BA800000D
S315000001208BA800008BA800008BA800008BA80000FD
S315000001308BA800008BA800008BA800008BA80000ED
S3150000014070B54FF0FF358AB0064633480BF018FB02
S315000001503249334B334C0B60334B00224B60334BED
S3150000016020461B8825604B82314B1B68CB61314B87
S315000001701B880B82304B1B688B6104F083FA24A327
S31500000180D3E90023CDE900234FF0FF334FF0FF32D0
S3150000019020680BF05BFB2946022220680BF080FBEF
S315000001A094223C230025CDE903320593962303A927
S315000001B020680693CDE90755099504F019FB02F06E
S315000001C0A1FA29462546206802F0A8FA20680BF015
S315000001D0CEFBB6F9001055F8080B04F069FC7668FA
S315000001E066B928460BF052F8A37B66F30003A373A7
S315000001F0202323840AF0F2F80AB070BD3068A060AC
S31500000200B288B379AA80AB71F2E700BFAFF3008082
S315000002100855005100000000690345EC3C1B002016
S31500000220C93C0000701B0020601B002040CA000073
S3150000023044CA000042CA000048CA00000348044BF2
S31500000240834202D0034B03B118477047E8240020CD
S31500000250E824002000000000064B0749C91A89104F
S3150000026048BF0131491003D0044B0BB10148184770
S31500000270704700BFE8240020E824002000000000AA
S3150000028010B5064C237843B9FFF7D8FF044B13B1DA
S315000002900448AFF300800123237010BD4A240020D8
S315000002A0000000001005010008B5054B1BB105490B
S315000002B00548AFF30080BDE80840FFF7CDBF00BF9B
S315000002C0000000003812002010050100A3F5803A56
S315000002D0704700BF174B002B08BF134B9D46FFF717
S315000002E0F5FF00218B460F461348144A121A0AF0EE
S315000002F02BFF0E4B002B00D098470D4B002B00D048
S3150000030098470020002104000D000D48002802D067
S315000003100C48AFF3008002F0B3FE2000290000F085
S315000003203FFA02F09BFE00BF00000800000000003C
S31500000330000000000810002008100020882400207B
S31500000340000000000000000010B5144BADF5087D5C
S3150000035002AC0FCB84E80F002C22002106A80AF07D
S31500000360F3FEFF234FF4967200213DA88DF8193055
S315000003700AF0EAFE4822002111A80AF0E5FE6822EA
S31500000380002123A80AF0E0FE009423AB11AA3DA9A0
S3150000039006A800F0E1F80DF5087D10BD58C500006F
S315000003A00122044B1A700023034A1370034A137088
S315000003B0704700BF4D2400204C2400204B24002011
S315000003C0002238B5134B144C1A700122134B1A70C5
S315000003D023689A78EAB1DA78DAB11A78510707D53C
S315000003E0986A0AF098F818B14FF4C03000F0BEF9D8
S315000003F023681A7892070CD55D680AF074F885426E
S3150000040007D923684FF4C030596ABDE8384000F078
S315000004107DB938BD4D240020681200204C240020F0
S3150000042007B5024601200B460649087006490748EB
S315000004300968009106490068096800F0B9FB03B035
S315000004405DF804FB4B24002064120020601200209B
S3150000045068120020044A05490548202312680968E5
S31500000460006800F06BBB00BF581200205C12002031
S3150000047060120020094B1A68D37892782AB1002BB3
S3150000048041F20C0018BF0020704740F2057241F29D
S315000004900C00002B18BF1046704700BF68120020E2
S315000004A008B502F0CDFB02F029F802F017F8BDE816
S315000004B0084001480AF05DBE5012002070B5244B7A
S315000004C0244C18681B7992B08DF80C302388029062
S315000004D0ADF80D30A37868468DF80F300AF057FE58
S315000004E041F60833ADF810309DF80630BDF804200B
S315000004F0C3F300038DF8183040F60223ADF8283018
S3150000050000230098ADF816208DF82A30CDF8120099
S3150000051002AD02F0DFFD02F0E3FD2046032102F00A
S31500000520E5FD02F0EBFD02F0CFFD112128460AF0B1
S3150000053040FE03210AA80AF043FE01200AF047FE06
S31500000540002840F2017008BF002012B070BD00BF45
S3150000055068C500006EC5000070B5134C134E2060D0
S315000005601348144D016014490A60144A1360049A32
S31500000570134B1A6033780BB10AF007FE2B78002B69
S31500000580F8D0104B1B784BB123689A784AB1DB78C8
S3150000059040F20570002B18BF002070BD40F20370BA
S315000005A0FBE740F20570F8E7681200204D240020B2
S315000005B0601200204C2400205C12002058120020FB
S315000005C0641200204B240020F0B5421ED11C0346C5
S315000005D085B023D80021896A04304969B1F5002F16
S315000005E028BF4FF40021884218D86E460C4C04F1FF
S315000005F01007354620686168083403C5BC422E469C
S31500000600F7D104A90F3311F8014D12F8010F8442F6
S3150000061004D19A42F7D1012005B0F0BD0020FBE7D6
S3150000062072C500002DE9F0410368044603F16043FA
S31500000630B3F5004F4FF000069CB061D8B26A43682C
S3150000064017699F425CD8B3F5002F59D8456B07F15F
S315000006504003AB4256D8B5F5002F53D82846FFF7CE
S31500000660B3FF00284ED0284609F036FFA0B1D5F8D2
S315000006701480B8F1000F0FD0B8F1020F0FD1AB699B
S31500000680C4F1040119444FF0FF32204600F0AAFDE0
S315000006901D4BC31A584258411CB0BDE8F081766B19
S315000006A03046FFF791FF0028F6D0A7F150039E428F
S315000006B026D8B8F1010F23D1AD69AF4220D8AC429C
S315000006C01ED8B5F5002F1BD802A800F047FE21461C
S315000006D02A1B02A80AF06EF802A80AF06DF800F0CC
S315000006E051FE044600F052FE23460090294605F1CD
S315000006F0200202A800F0B8FDB0FA80F04009CBE76E
S315000007000020C9E70120C7E7E320BBDE70B54FF044
S31500000710FF328AB005460C4600F064FD114B984244
S315000007201CD140F2022000F00FF90F4E20220021CA
S3150000073002A80AF009FD294601A801960BF0EDFE74
S31500000740211F01A80BF0E9FE0AF002F9B04202D11E
S3150000075001A80AF009F901A80BF03EFE00200AB034
S3150000076070BD00BFE320BBDE0100064310B50446A2
S315000007708AB040F2022000F0E7F82022002102A809
S315000007800AF0E2FC054B214601A801930BF0C5FED9
S3150000079001A80BF021FE00200AB010BD00000343A3
S315000007A010B501F033FE01280DD1214B04205A6EFD
S315000007B04FF480231F494B6601F510410862500330
S315000007C05CBF1D4A53661D4BD3F88420110606D420
S315000007D04FF400621A67D3F88420D206FBD409F0DE
S315000007E0ADFE00F09BF809F018FE09F018FE18B1EE
S315000007F04FF4017009F022FFFFF7A6FD044609F049
S3150000080010FE1CB140F203739C4206D140F2012057
S3150000081009F014FF4FF4017005E0A4F20574012CF1
S31500000820F8D840F2032009F009FF002010BD00BFF0
S31500000830008000500090005000A000500040005082
S315000008400123F7B58DF806308DF807302E4BD3F817
S3150000085094305A060FD500F083F8A0F2022080B239
S31500000860072808D8C923C340DB0742BF00238DF8F9
S3150000087006308DF807304FF490335B68013308D1AA
S315000008804FF4027000F060F800238DF806308DF802
S3150000089007309DF8073063B14FF49030FFF7C2FE82
S315000008A08DF806009DF806301BB94FF4027000F073
S315000008B04BF89DF806302BB34FF400454FF0FF324E
S315000008C0124B134C9D6603F174431A664FF6FF7282
S315000008D05A660023C4F8D030BFF34F8FBFF36F8F33
S315000008E04FF440370B4E032001F054FE03203761CE
S315000008F001F070FE4FF49030074BF7609D66A060E4
S3150000090009F020FE03B0F0BD0040005000900050FA
S3150000091000ED00E000A0004400A000504CF23C3284
S31500000920014B5A80704700BF000000204AF6C030D5
S31500000930044B5B8823F00F039BB21B1A58425841A5
S31500000940704700BF00000020044A08B51080FFF77A
S31500000950EDFF10B94FF20F03538008BD00000020D1
S315000009604FF20F01084B5A888A4201D11888704706
S315000009703AB91B8840F20220012B18BF4FF40070D1
S3150000098070474FF400707047000000204FF40032AB
S3150000099008B5044B9A6601F083FCB0FA80F0400972
S315000009A008BD00BF00900050072BF8B506460F465D
S315000009B014461D4601D90020F8BD0121202000F073
S315000009C0DDFF0121212000F0D9FF8CB144EA0603A6
S315000009D09B07F0D14FF40032064B31469A66284603
S315000009E023463A4601F086FCB0FA80F04009E3E778
S315000009F00120E1E70090005030B5024600230C25A7
S31500000A00054905FB03F460180C59944203D00133E1
S31500000A100C2BF6D1002030BDA0C60000F0B5002397
S31500000A20082787B0CDE9013315463B46009704AA4F
S31500000A30044609F02AFE41F203039842064623D1F2
S31500000A4094F8433053B13A46E06C04A909F0B2FE7B
S31500000A5004AA3B461146A06C09F09BFE059A049B2E
S31500000A606A6094F843202B6052B9094A934207D032
S31500000A70084A934204D00822E06C04A909F09AFEC1
S31500000A806B68236500236365304607B0F0BD00BF81
S31500000A90F70A0AF7FC0404FC2DE9F04799465B685F
S31500000AA004460F469046002B3ED011F003033ED17C
S31500000AB09B6A006E1B6981181D1DA9421BD31C333E
S31500000AC0984218D2A842024638BF2A46994294BF95
S31500000AD0C2EB010AC2EB030A101A3E18C5F1680000
S31500000AE010443146524620440AF036FB5246FF2156
S31500000AF030460AF029FB226E0E4B9A420BD80E495D
S31500000B0002EB0800884206D99B1AFA58C4F88020DE
S31500000B104FF0FF32FA50D9E9003542463946206E89
S31500000B20A847236E434423660020BDE8F08741F2C0
S31500000B300200FAE704800100078001002DE9F04178
S31500000B4000254FF0FF3704468846164603F020037B
S31500000B5080F842301822FF21C0E91855A0F840500D
S31500000B6080F84350A0F8445080F84650C0F888708A
S31500000B7068300AF0E9FA88222946C4E91286C4F8E0
S31500000B808070C4F8847004F190000AF0DDFA074B17
S31500000B90C4F82071C4E946350123A4F8243116B1FE
S31500000BA0304600F0DBFB0020BDE8F08100010101CA
S31500000BB02DE9F04F9BB09946CDE907230023044663
S31500000BC00E464FF00108249D09930999B7E094F861
S31500000BD046300C2B00F2AF80062B7BD901229A40BF
S31500000BE012F4286F40F03A8212F4885F40F09B813D
S31500000BF00A2B40F0A480DFF820B4636D072B00F2C7
S31500000C004C814FF0080A38232046CDE90188CDF8FB
S31500000C1000A00CAA07A909F038FD41F20303984287
S31500000C2040F0A680337843F0040333700D9BB36223
S31500000C3073785F071CD50020236DCDF828B0C4F863
S31500000C40843094F84530606643F0020384F84530FA
S31500000C50EF686FB104222B680AA9B847606E2B684B
S31500000C605246EF680CA95044B847636E103363666A
S31500000C700B2384F84630C0E7A3F10E02052A00F2E2
S31500000C803B82DFE812F0A8020600F400EE01EE0156
S31500000C90A6020027636D0F2B00F2998010232046D1
S31500000CA00093CDE9018740230AAA07A909F0EDFCC4
S31500000CB041F2030398425BD1D4F848A000F06AFBE6
S31500000CC080230221CDE900030BAA0123504600F040
S31500000CD0A1FADFE7013B052B36D8DFE813F07A00EF
S31500000CE074000600BF01D2002C010127636D072B9B
S31500000CF000F2D380082320460093CDE901774023F4
S31500000D000AAA07A909F0C1FC41F2030398422FD1B0
S31500000D1033780B9A43F0020333700A9B7360236D9A
S31500000D20083B7362002A00F0DF80132384F8463004
S31500000D3041F201001CE0A3F10D02062A9CD94945A7
S31500000D40FFF445AF002064E020460AAA07A9FFF792
S31500000D5065FE41F2030398420AD10B9B0A9A23656A
S31500000D6000236365AA4B9A42DFD1022384F84630FA
S31500000D7041F203030590059A9A423FF426AF47E0F5
S31500000D80082320460093CDE9018740230AAA07A934
S31500000D9009F07BFC41F203039842E9D10A9B03F078
S31500000DA07F43B3F1407F05D0132341F2090084F855
S31500000DB04630DDE70B9BD80706D594F8423043F062
S31500000DC0010384F842300027636D072BD8D901232D
S31500000DD0AEE020460AAA07A9FFF720FE41F2030368
S31500000DE09842074609D10A98FFF706FE034698B9C6
S31500000DF0132341F2080784F8463041F203030597AE
S31500000E00059A9A423FF4E1AE059B0BB10023F370BD
S31500000E1005981BB0BDE8F08F427994F825119142F0
S31500000E2005D9132341F20E0784F84630E5E7016839
S31500000E307848814205D01989C90748BF013284F82C
S31500000E40252194F84220D0070DD5198994F843201E
S31500000E50890706D53AB1132341F2010784F84630D3
S31500000E60CBE7002AF7D01B7984F84630C5E7226D18
S31500000E700123A265002284F84330E26584F84630F7
S31500000E80A3E6402200210AA80AF05EF90127D4E968
S31500000E901432934204D884F8467041F2030067E79F
S31500000EA0009320464023CDE901770AAA07A909F055
S31500000EB0ECFB41F2030398427FF45AAF0DF1280C84
S31500000EC006F108030DF1400E624603CA724518602A
S31500000ED05960944603F10803F6D110681860337818
S31500000EE043F001033370D2E7042384F8463094F8C4
S31500000EF04530626643F0010384F84530F6E6042384
S31500000F0020460093CDE9017740230AAA07A909F0F4
S31500000F10BCFB41F2030398427FF42AAF236D042BF6
S31500000F2002D90A9B23660127636D032BE7D90923A0
S31500000F3084F84630B1E70023636607239EE7BB4289
S31500000F40C0F08680402F28BF40279F4228BF1F46FB
S31500000F50032F88BF27F0030740232046CDE90188E9
S31500000F6000970AAA07A909F090FB41F203039842E9
S31500000F707FF4FEAE94F84620072A27D1D5F808B0AC
S31500000F80BBF1000F22D02B683A46606E0AA9D847FB
S31500000F90636E3B44636649E00AA901F803A0013386
S31500000FA0032BF9D9042FC7F1040B88BF4FF0000BB0
S31500000FB0092ABB440CD12B465A4620460AA9FFF7FC
S31500000FC06BFD002832D041F20200D1E63B46E7E74E
S31500000FD0042A23D17378980728D5EB6833B3626E59
S31500000FE0042A0BD80BEB0203062B07D90BAB9B1A73
S31500000FF01A68C4F884204FF0FF321A60EF682B6835
S315000010005A46606E0AA9B847636E5B44C2E700BFE2
S31500001010EB17A603F90707F9EB17A65E0B2A05D10E
S315000010207378590702D5EF68002FE8D1D4E9147315
S315000010309F427FF6CCAEFF1ADDE908329B1A94F880
S315000010404020032F13447FF67AAF032B3FF67AAF87
S31500001050204607A909F0F9FA002089E64FF0FF0AB1
S31500001060E4E700218A6A496B1269503A91423FF6D9
S315000010705FAE112B0AD194F81831002B7FF4A7AE7E
S31500001080132341F2060084F8463071E694F84430A2
S31500001090002B7FF49CAECDE901334023204600931C
S315000010A00AAA07A909F0F1FA41F2030398427FF46C
S315000010B05FAEE06C09F080FB94F81831D4F84CA0D0
S315000010C06BB104F1B403009304F19403504612AAE1
S315000010D00AA900F0C9F850B10023F370D0E700F078
S315000010E051F9074600F052F93B460090EEE701231E
S315000010F0F37084F844306AE600234FF00408CDE923
S31500001100013320464023CDF800800AAA07A909F03A
S31500001110BCFA41F20303984209D1D4F888202F4B38
S315000011209A4206D0132341F2050084F84630059012
S315000011306EE60123F37094F84530DA0707D5EF68B9
S315000011402FB1424640462B6804F18401B84794F813
S3150000115045309B0707D5EF682FB104222B68104650
S3150000116004F18401B847236E63B36F6857B34FF039
S31500001170FF3304F180080422414606A8069309F0CD
S31500001180BAFF20B1042241462B681548B84704F13E
S3150000119068090422494606A809F0ADFF90B100236C
S315000011A09B6A1422D3F8108004F16C0108F1080040
S315000011B0D5E90037B847D5E900370422494608EB98
S315000011C00200B8470123B3700E23002084F846308E
S315000011D0ADE70023F37041F207001AE6E320BBDE19
S315000011E00480010030B50824094B00255C66012403
S315000011F003F5FE235C6001449D601A61DC60884251
S3150000120001D1586A30BD10F8012B1A62F7E700BF0A
S3150000121000900050F8B516464FF400521D46114B8B
S3150000122004469A660222C3F860220F4609F0D8FBEC
S31500001230DDE90612204609F0D7FB002384F8387052
S3150000124063623368C4F839307368C4F83D30B368F4
S31500001250C4F841302B0C6DBA84F84530A4F84650DA
S31500001260F8BD00BF009000502DE9F041B0B0144623
S315000012700D461A460646369B002867D0002965D0DB
S31500001280002C63D0002A61D0002B5FD006214FF4DA
S31500001290005006912F4920AF88660320C1F86002EE
S315000012A00021BE4609910C910F9105F12008F446E4
S315000012B0286869680835ACE803004545E646F6D176
S315000012C00DF1A00C04F1200E654620686168083413
S315000012D003C57445AC46F7D10DF1400C654602F1E5
S315000012E0200E2C4610685168083203C47245254604
S315000012F0F7D118AC03F1200522461868596808335F
S3150000130003C2AB421446F7D14023CDE90A730893D2
S3150000131020230AAA0E9303AB07CACDF81CC00D966C
S3150000132083E8070007AB93E807008DE807000DABDD
S315000013300ECB094809F01CFE0690069B40F204609D
S31500001340002B08BF002030B0BDE8F08140F20160FC
S31500001350F9E700BF0090005018C800004FF4005293
S31500001360074B10B59A6602220446C3F8602209F0BC
S3150000137026FA2046BDE81040002109F024BA00BF35
S3150000138000900050004870474CE307000048704743
S315000013906CE307000048704786E207002DE9F34733
S315000013A01446DDE90A920D461F4600284CD1002C52
S315000013B041D013683F2B42D85168002941D02549B6
S315000013C0002F14BFB846884603F03F061B1913606A
S315000013D022BF536801335360C6B3C6F1400A544571
S315000013E023D32946524609EB060009F0B5FE012330
S315000013F0264400934A463B4641460020A6F1400457
S3150000140009F0FDF93F2C55440DD9B846A3092A46E3
S31500001410009341463B46002009F0F1F924F03F03D2
S315000014201D4404F03F0434B100262246294609EB48
S31500001430060009F091FE002002B0BDE8F087B8462C
S31500001440C2E7DFF81080BFE70348F5E73F2CDDD899
S31500001450EBE700BF70C7000080AFFFFF2DE9F0414A
S315000014601746146886B01E46E3008DF80F306309F0
S315000014708DF80E30630B8DF80D30630D8DF80C3042
S3150000148053680546DA0002EB54728DF80B2004F01F
S315000014903F045A09372C8DF80A204FEA53324FEA97
S315000014A053538DF80920884694BFC4F13802C4F11D
S315000014B07802CDE900178DF808300D490346002063
S315000014C0FFF76CFF08222B460020CDE900870DEBC5
S315000014D00201FFF763FF284605F1200350F8042BAD
S315000014E0984246F8042BF9D1002006B0BDE8F081F9
S315000014F030C7000010B50A46044619B1024B002158
S315000015001B68984710BD00BF90C70000BFF34F8F00
S315000015100549064BCA6802F4E0621343CB60BFF389
S315000015204F8F00BFFDE700BF00ED00E00400FA05A5
S315000015300348044A0449121A921009F0A7B900BFD9
S3150000154040010000400100008824002008B5164B29
S3150000155083F30A8800F032F8FFF7EAFFFFF770F925
S31500001560124B13498B4212D30020124B12498B4265
S3150000157018D3FEF7AFFE186850F82240586840F8B6
S315000015802240013298688242F5D30C33EAE7002202
S31500001590F8E71C6844F8220001325C68A242F8D3DE
S315000015A00833E4E70022F8E70800002018050100E8
S315000015B02405010024050100240501004FF4004123
S315000015C0134B144A70B59A60D3F88820124D42F432
S315000015D07002C3F88820114A05F5005491664FF051
S315000015E0FF3222664FF6DF7262660222C3F8D0200F
S315000015F0BFF34F8FBFF36F8F4FF44036032000F0D9
S31500001600E9FF0320E66000F0D7FF2E6170BD00BF42
S3150000161000ED00E000000000008000440090005053
S3150000162070B5044601260C4D04B970BD94FAA4F0B9
S31500001630B0FA80F006FA00F224EA0204C200AA58C0
S315000016400F2805EBC001C8BF1038002AECD0496846
S31500001650C0B29047E8E700BF6C12002008B500F062
S31500001660DDFE054B00F0553020F05020C3F8200475
S31500001670BDE80840FFF7D4BF00E0035008B500F00E
S31500001680CDFE054B00F0AA3020F0A020C3F82004C0
S31500001690BDE80840FFF7C4BF00E00350044BD3F891
S315000016A08420D206FBD4D3F88400C0F3811070479F
S315000016B00040005038B5184B0546D3F824010C46B7
S315000016C000F00700062823D8DFE800F0040A121A03
S315000016D01E0E1600012305B1286004B1236038BD33
S315000016E00AF0BEFD0523F6E70AF0BAFD0623F2E787
S315000016F00AF06EFE0323EEE70AF06AFE0423EAE729
S315000017000AF062FE0223E6E70AF0FCFE0723E2E7A0
S3150000171000231846DFE700BF0080005038B5104BA5
S315000017200546D3F800310C4603F00303022B0BD019
S31500001730032B0DD0012B0FD10AF04AFE032305B16E
S31500001740286004B1236038BD0AF0DEFE0823F6E700
S315000017500AF0D8FE0723F2E701230020EFE700BFD7
S315000017600080005038B5104B0546D3F820310C46A2
S3150000177003F00303022B0BD0032B0DD0012B0FD14B
S315000017800AF06EFD052305B1286004B1236038BD5B
S315000017900AF01EFE0323F6E70AF016FE0223F2E71E
S315000017A001230020EFE700BF0080005038B5104B42
S315000017B00546D3F840310C4603F00303022B0BD049
S315000017C0032B0DD0012B0FD10AF0A1FE092305B181
S315000017D0286004B1236038BD0AF096FE0823F6E7B8
S315000017E00AF098FE0B23F2E701230020EFE700BF83
S315000017F00080005038B5104B0546D3F860310C46D2
S3150000180003F00303022B0BD0032B0DD0012B0FD1BA
S315000018100AF07DFE092305B1286004B1236038BDB6
S315000018200AF072FE0823F6E70AF074FE0B23F2E7CD
S3150000183001230020EFE700BF0080005038B5104BB1
S315000018400546D3F840320C4603F00303022B0BD0B7
S31500001850032B0DD0012B0FD10AF059FE092305B138
S31500001860286004B1236038BD0AF04EFE0823F6E76F
S315000018700AF050FE0B23F2E700231846EFE700BFFD
S315000018800080005038B5144B0546D3F800020C46CC
S3150000189000F0070004281BD8DFE800F003090D114B
S315000018A01500012305B1286004B1236038BD0AF094
S315000018B02EFE0923F6E70AF027FE0823F2E70AF0D0
S315000018C029FE0B23EEE70AF06DFD0E23800AE9E7F9
S315000018D000231846E6E700BF00800050B0F5207FE1
S315000018E01FD009D8B0F5007F15D003D868B1B0F580
S315000018F0C07F0AD000200CE0B0F5607FFAD10B4B18
S31500001900D3F88000C0F3011003E0084B186FC0F352
S31500001910033001307047054BD3F89000C0F30460E4
S31500001920F7E7024B186FC0F38020F2E70080005003
S315000019304FF400320E4B014610B500209A66FFF7B1
S31500001940CDFF484341F671320A490B4B884294BF9A
S3150000195000200120DC69DA639A6822F4401242EA28
S3150000196000529A60E20344BF0022DA6310BD00BF52
S3150000197000900050005A6202000003505F2898BF92
S31500001980094B4FEA501294BF53F82230074B00F030
S315000019901F0029B103F58053012282401A60704767
S315000019A003F50053F8E700BFA0C7000060820050AF
S315000019B01FB50021B0F5807F0446019100F020811B
S315000019C000F29D80612800F295801F2805D8002826
S315000019D040F092800AF0E6FCE5E0A0F12004412CFC
S315000019E000F28A8001A353F824F000BFD519000045
S315000019F0AB1B0000D5190000AB1B0000CB1B000081
S31500001A00CB1B0000CB1B0000CB1B0000AB1B000058
S31500001A10AB1B0000731B00002D1B0000E71B000022
S31500001A20211C00002D1B0000AB1B0000AB1B00009F
S31500001A30AB1B0000F91A0000F91A0000F91A0000A1
S31500001A40F91A0000F91A0000F91A0000D51B000067
S31500001A504F1B0000AB1B0000AB1B0000AB1B0000C4
S31500001A60351C00002B1C0000AB1B0000F91A0000FF
S31500001A70F91A0000F91A0000F91A0000F91A000014
S31500001A80F91A0000F91A0000F91A0000F91A000004
S31500001A90F91A0000F91A0000F91A0000F91A0000F4
S31500001AA0D5190000F91A0000D5190000D519000053
S31500001AB0D5190000CB1B0000F91A0000F91A000026
S31500001AC0F91A0000F91A0000F91A0000F91A0000C4
S31500001AD0F91A0000F91A0000F91A0000F91A0000B4
S31500001AE0F91A0000F91A0000F91A0000D5190000C9
S31500001AF0D5190000802854D0019804B010BDB0F567
S31500001B00A06F67D028D8B0F5607F59D019D8B0F546
S31500001B10007F55D004D8B0F5C07F3FF45BAFEBE74C
S31500001B20B0F5207F41D0B0F5407FE5D10AF03AFC10
S31500001B3002464FF42070FFF7D1FEB2FBF0F25208D6
S31500001B403CE0B0F5806F40D0B0F5906FD4D1002165
S31500001B5001A8FFF7AFFDCFE7B0F5E06F65D016D867
S31500001B60B0F5C06F3FD0B0F5D06F59D0B0F5B06FBB
S31500001B70C2D10021324B0391D3F8803103F0030325
S31500001B80012B35D0022B37D0039B0193B4E7B0F578
S31500001B90F06F4FD0B0F5086FAED101A8FFF7BEFDCC
S31500001BA0AAE70AF0E7FB0190A6E70AF0FBFB02466C
S31500001BB04FF42070FFF792FEB2FBF0F201929BE722
S31500001BC00AF0D8FB02462046F4E7002101A8FFF7F9
S31500001BD0C9FD91E71A4BD3F8203203F00303012B1A
S31500001BE0F3D0022B88D1002101A8FFF7DFFD83E7A0
S31500001BF003A8FFF7B7FDC7E70AF0E6FB0390C3E7C4
S31500001C004FF0E02302911B695B0704D50AF0CAFB7B
S31500001C100290029BB9E703A902A8FFF7C7FDF8E700
S31500001C20002101A8FFF72EFE66E7002101A8FFF7B5
S31500001C3005FE61E7002101A8FFF7DCFD5CE700BFB8
S31500001C400080005008B58020FFF7B2FE034B984293
S31500001C509EBF4FF48032024B1A6708BD005A6202DB
S31500001C6000A000501FB503460020B3F5807F019009
S31500001C707FD027D8382B00F092800BD8243B092B35
S31500001C8010D8092B0ED8DFE803F06F6F6F6F0D0DBC
S31500001C905A0D3685522B67D007D83D2B3AD03E2BAE
S31500001CA000F08680019804B010BD802BFAD1434B1A
S31500001CB01B6F03F00703013B032BF3D8DFE803F0A8
S31500001CC03D36393BB3F5D06F64D019D8B3F5A06F64
S31500001CD065D00AD8B3F5806F46D0B3F5906FE1D1E1
S31500001CE0002001A9FFF7E6FCDCE7B3F5B06F26D0CC
S31500001CF0B3F5C06FD6D1002001A9FFF757FDD1E794
S31500001D00B3F5006FECD00AD8B3F5E06F50D0B3F559
S31500001D10F06FC7D1002001A9FFF76CFDC2E7B3F54C
S31500001D20086FBFD101A9FFF7F9FCBBE705230193B3
S31500001D30B8E70323FBE70723F9E70223F7E71F4B7F
S31500001D40D3F8804104F00304012C04D0022C08D0FF
S31500001D5000240194A6E7002103A8FFF703FD0F2442
S31500001D60F7E70AF031FBF4E7002001A9FFF7FAFCD8
S31500001D7098E74FF0E02302901B695B0705D50AF050
S31500001D8011FB0C230393039BD1E703A902A8FFF7DA
S31500001D900DFDF8E7002001A9FFF774FD82E7074B68
S31500001DA0D3F8203203F00303012BDDD0022BA1E789
S31500001DB0002001A9FFF742FD74E700BF0080005034
S31500001DC04FF40022034B5A66012203F580439A62C0
S31500001DD0704700BF0090005070B504468020FFF7A2
S31500001DE041FF032800F082804FF40022444B022179
S31500001DF05A6645F60E03434AC2F88030424B996252
S31500001E00012103F580539962936DD903FCD4D4E97B
S31500001E1000131B0543EA0163E17B94F823500B434F
S31500001E20217B43EA0143617B43EA0133A17B43EA19
S31500001E30811313619169D4E904031B0643EA8063A5
S31500001E4001F000410B43A17EE07E0B43217E43EA75
S31500001E500143617E43EA01239361E169136A002924
S31500001E6023F00D0343EA010314BF0121002143EAD5
S31500001E70800343EAC103136294F8203094F82200E9
S31500001E80916A4FEA431332D194F8216021F033016D
S31500001E9043EA06130B4343F0010393621B49194BB4
S31500001EA09A6D31EA0202FBD1022217498A621A654B
S31500001EB09A6D5200FCD41A69A16822F4700242EAB3
S31500001EC001521A614FF000420F4B9A6118B9022273
S31500001ED003F580539A6215B901220D4B9A6294F864
S31500001EE024301BB1074B0B4AC3F8802070BD21F08C
S31500001EF0330129430B4343EA40039362EFE700BFF4
S31500001F000090005000C0005000D000500300014077
S31500001F1000E00050F1A7FFFF014B93F90000704766
S31500001F204F240020014B1880704700BFC8240020B2
S31500001F30B0F5207F10B50C4642D008D8B0F5007F2A
S31500001F4033D003D888B1B0F5C07F0ED010BDB0F540
S31500001F50607FFBD11F4A4C1ED2F8803023F030033D
S31500001F6043EA0413C2F88030F0E708F0C1FC08F039
S31500001F70CDFC4FF48031184B164A1967136F013C9C
S31500001F8023F4704343EA043313670AF00BFA04465A
S31500001F90FFF784FBC0F10201204608F0B1FC00F017
S31500001FA035F8BDE81040FFF74DBE0A4A4C1ED2F880
S31500001FB0903023F0F85343EA0463C2F89030C5E743
S31500001FC0044A4C1E136F23F4806343EA8423136789
S31500001FD0BCE700BF008000500090005008B501210A
S31500001FE0022000F045F84FF42070FFF777FC054B10
S31500001FF0187008F07DFC08F089FC4FF48032024B23
S315000020001A6708BD4E2400200090005008B54FF412
S31500002010C070FFF7CDFCBDE808400449884294BF74
S31500002020012102214FF42070FFF782BF80F0FA02EF
S3150000203038B504460AF0B6F90546FFF72FFBC0F19E
S315000020400201284608F05CFC0121002000F050F84F
S315000020502CB1FFF7DBFFBDE83840FFF7F3BD034BBC
S315000020604FF420701978FFF763FFF4E74E24002041
S31500002070F8B504461C4BD3F88420D106FBD4D3F81C
S315000020808430C3F381139C422CD00AF073F9012CDF
S31500002090064602D1214608F033FC0AF024FA4FF036
S315000020A00072124B07465A66204608F034FC4FF47D
S315000020B080630D4D621E93402B676B6E9A0103D4AD
S315000020C0D5F884309B060AD538460AF007FA022C62
S315000020D008D13046BDE8F840002108F011BCD5F81B
S315000020E08430EAE7F8BD00BF0040005000600050B1
S315000020F010B50C4608B90AF03DF9074B21461B7886
S315000021003BB1064B984204D80120BDE81040FFF7CA
S31500002110AFBF0220F9E700BF50240020005A620238
S315000021204FF0004238B5264B26495A6601224A60CE
S315000021304AF6CD3103F50B235D6C1964154030BBAF
S315000021409968C9070BD4002401221F4B5A6015B1A8
S315000021501E4B1F4A1A6409F0BAFB204638BD1A49BD
S315000021608A601C4AD96ACC0705D4904201D107245B
S31500002170EAE70130F6E79042E5D1F8E70132DC6A9A
S3150000218014F0080406D08A42F8D10724DFE70022BB
S315000021901049F4E78A42F8D020220B4B0B495A62C9
S315000021A00122A3F580539A6023460A4A486A8006AC
S315000021B003D49342E9D00133F8E79342C7D1E4E769
S315000021C0009000500050095000600950004009502E
S315000021D03254FFFF40420F004FF0004238B5174B14
S315000021E0174C5A66012203F50C235A604AF6CD3382
S315000021F0656C2364437893401343124AD363C378D0
S315000022008178A2689B0043EA011322F0740213430B
S31500002210A3600279837943EA022323614279C37971
S3150000222043EA022363610078FFF77AFFEB0744BFB6
S31500002230054B236409F04BFB012038BD009000508C
S3150000224000400950004000503254FFFFF0B5114ADB
S31500002250114C124E00F00105E3695F0713D40DB966
S31500002260334213D103EA00078F4207D10B4A1A40C3
S31500002270002A14BF6FF001000020F0BD013AEBD137
S315000022806FF00200F9E74FF0FF30F6E76FF001005C
S31500002290F3E700BF8096980000000350020001009B
S315000022A04FF4003238B50F4B0F4C9A6641F6713336
S315000022B00122E569E3630D4B0021DA6002236061C8
S315000022C02120236105F48035FFF7C0FF10B92120D6
S315000022D0FFF7BCFF0122064BDA600DB10023E36372
S315000022E038BD00BF0090005000000350001003509E
S315000022F0002003502DE9F04301264FF440252F4CD2
S315000023002F4F4FF4003E7E6044F8205030250024C5
S3150000231041F67138DFF8B8C005FB00C5EC652C66E0
S315000023202C67284C06FA00F0C4F868E004F51C3463
S31500002330D4F81CE0C4F83C8004F58054DFF894809F
S31500002340E660DFF8949043B901211F4A1EF4803FEE
S31500002350D1602CD10020BDE8F08301F500546FF365
S315000023600C04641A9C4228BF1C46C9F81410D9F8FC
S315000023701C90A60819F0040F1CD1013E360146F048
S3150000238060566E66AA66C5F86C807862DCF83460C2
S315000023903042FBD04FF004090C4E21447063A6F581
S315000023A09036B8622244C6F810901B1BC9E7C9F8DC
S315000023B03C30CFE74FF0FF30CDE700BF0040045080
S315000023C000100450009000500020035000200450DC
S315000023D00000045018000350000003504FF48032F0
S315000023E0064B5A6603F5E6235B69C3F385128270D2
S315000023F003F03F021B0B42700370704700900050C1
S31500002400014B986CD96C70470080E00F024B18683E
S31500002410C0F30740704700BF0080E00F034BD3F8BE
S315000024202424D3F820041040704700BF00C0035096
S31500002430084B09495A6E4FF48033D2034B6601F5B7
S31500002440E621D1F8040658BF044A00F1805058BF6F
S3150000245053667047008000500090005000A0005066
S3150000246010B5FFF7E5FF00F1A043A3F58043B3F5F0
S31500002470606F17D802680C4B9A4213D10369053373
S31500002480B3F5007F0ED2002211469A4205D350F8CA
S315000024902300431A5842584110BD50F822400132D9
S315000024A06140F2E70020F7E7DEC0ECE54FF40052AA
S315000024B0034B00209A660322C3F86022704700BFD0
S315000024C0009000504FF40052034B00209A660322FE
S315000024D0C3F86022704700BF00A0005007B56B46E6
S315000024E0054A1068516803C36846FFF775FE002069
S315000024F003B05DF804FB00BFACC7000030B58BB07D
S315000025006C46174D0FCD0FC40FCD0FC495E80300D1
S3150000251084E80300134BD3F84C2112031CD5A3F512
S31500002520FE431C884FF6FF739C4208BF8C248DF82F
S315000025301940FFF7F1FC044484F308040A488DF8B7
S31500002540184008F0B0F96846FFF746FC3220FFF75E
S31500002550E9FC00200BB030BDD3F85041E4B2E6E709
S31500002560B4C700000080E00F00F049020028ACBFAD
S3150000257000F16040064B4FEA0111C9B2ABBF00F54E
S31500002580614000F00F0080F800131954704700BF37
S3150000259014ED00E000280CDB01220649430900F097
S315000025A01F008240203341F82320BFF34F8FBFF333
S315000025B06F8F704700E100E0002807DB0123410927
S315000025C0034A00F01F00834042F82130704700BFE5
S315000025D000E100E0002808DB01224309034900F07E
S315000025E01F008240603341F82320704700E100E07D
S315000025F070B5044609F085F9064630B90FCC044D8E
S315000026000FC594E8030085E80300304670BD00BF9F
S315000026106C13002047F6FF739A42F0B569D0022981
S3150000262069D8364B5B5C012B65D8354DDE0005EB72
S31500002630C30415F83330A178012B13D10025E078B7
S31500002640401AA84202D80844C0B2F0BD431B6668CF
S31500002650A0EB530336F913609642D4BF1D4603F12F
S31500002660FF30EEE760680028EFD0B0F90040A242E4
S3150000267004DCB0F902409442B8BF1446838835445E
S31500002680FF2B19BFC8232827B0F90630B0F9087008
S31500002690A3EB04030CBF0122002293FBF7F36E7831
S315000026A013441BB29E4201DD002B01DA731E1BB2DE
S315000026B04FF47A7C00EBC305EA88AD685F1C14FB17
S315000026C002521D4622EAE2723BB25C329E42B2FBE5
S315000026D0FCF204DD00EBC307BF88BA42EAD900EB7F
S315000026E0C5039888904228BF1046884238BF0846DE
S315000026F0AAE7FF20A9E70020A7E700BFDCC7000084
S315000027006C13002008B50448FFF772FFBDE80840C7
S31500002710012009F0F8B800BFB0C9000011B902499C
S3150000272009F0DEB821207047CA24002060B50546AE
S3150000273019B10139B1F5806F0FD2094EF06810F466
S315000027408030FBD143EA012312072B4302F080526B
S31500002750134343F00043736060BD0120FCE700BFF4
S315000027600020025C0122054B9A60DA68D203FCD491
S31500002770D86820F00F000004000C70470020025CAF
S315000027800322024B186019615A6370470000025C0D
S3150000279082B01FB507930A9B04AC8B4228BF0B4639
S315000027A004E907001048D100079948BF03330160C8
S315000027B0099948BF23F0030323F0704301F0E04179
S315000027C0194341F000518160002102F0E042019C72
S315000027D01A4342F00052C16004618261416304B051
S315000027E0BDE8104002B070470000025C3F22034B78
S315000027F01A631022DA6103229A6370470000025CB2
S31500002800024AD36B9B07FCD4704700BF0000025CF2
S31500002810044B986A00F02400003818BF012080009D
S31500002820704700BF0000025C08B5FFF7F1FF064BDA
S31500002830DB6B23F47F4323F0EF0303431EBF012228
S31500002840024BC3F8FC2F08BD0000025C00F0FF3FFE
S315000028504368182B0AD0202B1DD0102B2BD1174BD9
S31500002860D3F80434DB010AD401207047134BD3F8A4
S3150000287004349A01F8D50B6843F008030B6003682B
S315000028800F4A934210D10B6843F040030B600023BC
S31500002890436000207047094BD3F804345B01E3D54D
S315000028A00B6843F00403E9E7064A9342F1D10B684B
S315000028B043F08003EAE70720704700BF0000025C90
S315000028C052240020512400200B4607B50749D1F8B1
S315000028D00414C90708D5002100920246084600F0F4
S315000028E033F803B05DF804FB0120FAE70000025C50
S315000028F00B4607B50749D1F80414C90708D5009255
S3150000290001210246002000F01FF803B05DF804FB29
S315000029100120FAE70000025C1FB50A4CD4F8044413
S3150000292064070CD5CDE900120021069C0222CDE9F0
S3150000293002340346084600F031F804B010BD012009
S31500002940FBE700BF0000025CF0B51C465B6815465D
S315000029508DB01A07129E1AD1CBB17268934216D166
S315000029600C4B0D4A53F8217009AB07CA83E80700E0
S315000029701A462946CDE90533CDE90333CDE901638E
S31500002980009447F4807008F018FA0DB0F0BD0720E7
S31500002990FBE700BF10C80000E0C700002DE9F041CA
S315000029A08CB0DDE9127C7C681E46DDE9143E20070A
S315000029B028D13CB3DCF80400844223D1586810289F
S315000029C020D1DEF8040010281CD10F4809AC50F8BD
S315000029D021500E4951F822800D4A07CA84E80700A3
S315000029E045EA080022463146CDE9054ECDE90344C5
S315000029F0CDE901C4009740F0300008F0DEF90CB0D4
S31500002A00BDE8F0810720FAE710C80000ECC7000017
S31500002A10E0C700000138C0B206289ABF014B185C17
S31500002A2000207047F3C800000138C0B206289ABFDC
S31500002A30014B185C00207047ECC800002DE9F04FF0
S31500002A40BBB0804603A880E80E007C4B9DF8109131
S31500002A50D3F80024D40603D401203BB0BDE8F08FA0
S31500002A6008F1FF32059EDDE903A7062A6DD8DFE8E7
S31500002A7002F004191F252B313700D3F80C34D80780
S31500002A80EAD5012307930023B9F1010FCDE90833F5
S31500002A902CD0B9F1020F5AD04046FFF7C5FF632488
S31500002AA0054631E0D3F80C349907D5D50223E9E77A
S31500002AB0D3F80C345A07CFD50423E3E7D3F80C3404
S31500002AC01B07C9D50823DDE7D3F80C34DD06C3D5CB
S31500002AD01023D7E7D3F80C349C06BDD52023D1E7C5
S31500002AE0D3F80C345806B7D54023CBE7534BD3F86D
S31500002AF00C34D903B0D5079B404643F4C063079313
S31500002B00FFF788FF0324054613230422009307A931
S31500002B104FF0005312A808F00EF95146009446F003
S31500002B2000533A4608F007F94FF0000B04465E469C
S31500002B30DDF814A1469B9B452DD1B9F1030F43D176
S31500002B404046FFF771FF874238D0072085E73B4BA9
S31500002B50D3F80C24D2037FF57FAFD3F80C349B0354
S31500002B607FF57AAF97B17C423946374604F00304C5
S31500002B70079B404643F4E0630793FFF74BFF2402AD
S31500002B803E4605460F4644F0A304BDE704210DF179
S31500002B90200A0C46ECE7DAF8042016444AB103236F
S31500002BA000932046DAF80830DAF8001008F0C3F887
S31500002BB004460BF1010B0AF10C0ABBE7404608F08C
S31500002BC021FA01383042C0D17EBB0323324620466B
S31500002BD0009308A9334608F0AEF804260446103CD4
S31500002BE0204608F0BDF82046314608F0C4F8489B58
S31500002BF0AB4228BF2B461C46EBB10023224600936E
S31500002C004799499B0AA808F096F82A1B04D0002386
S31500002C101946009308F08FF8103808F0A1F812A8AA
S31500002C200AA908F07DF8002017E716F0030618BF7A
S31500002C30C6F10406D3E70AA8E7E700BF0000025C76
S31500002C4010B5234CFFF7BCF8FFF7C8F9236F012036
S31500002C5023F0070343F003032367FFF7E9F91D4B4E
S31500002C6000209B6A9B075EBF01221B4B9A62D4F829
S31500002C70203123F0030343F00203C4F82031D4F8D3
S31500002C80243123F0070343F00203C4F82431D4F8B7
S31500002C90403123F0030343F00203C4F84031D4F873
S31500002CA0603123F0030343F00203C4F86031D4F823
S31500002CB0403223F0030343F00203C4F84032D4F851
S31500002CC0003223F0070343F00203C4F8003210BDBC
S31500002CD00080005000C0005000E0005053B94AB9CF
S31500002CE0002908BF00281CBF4FF0FF314FF0FF300E
S31500002CF000F0B2B9ADF1080C6DE904CE00F006F8AB
S31500002D00DDF804E0DDE9022304B070472DE9F04F59
S31500002D108C46099E04460F46002B48D18A4215462A
S31500002D205ED9B2FA82F33BB1C3F120029F409D40C7
S31500002D309C4020FA02F217434FEA154E1FFA85FC13
S31500002D40220CB7FBFEF10EFB117701FB0CF042EAF9
S31500002D500742904207D9AA1801F1FF3702D29042E2
S31500002D6000F258813946121AA4B2B2FBFEF00EFBED
S31500002D70102200FB0CFC44EA0244A4450BD92C1992
S31500002D8000F1FF322CBF01270027A44502D9002FEE
S31500002D9000F04381104640EA0140A4EB0C040021F8
S31500002DA01EB1DC400023C6E90043BDE8F08F8B422C
S31500002DB006D90EB1C6E9000100210846BDE8F08F2C
S31500002DC0B3FA83F1002951D16345C0F016818242DE
S31500002DD040F213810846002EE7D0C6E90047E4E733
S31500002DE0002A00F0AF80B2FA82F3002B40F0C280D6
S31500002DF08A1A4FEA154EAFB20121200CB2FBFEFC37
S31500002E000EFB1C2240EA024207FB0CF090420ED950
S31500002E10AA180CF1FF382CBF4FF001094FF000093A
S31500002E20904203D9B9F1000F00F0F080C446121A9F
S31500002E30A4B2B2FBFEF00EFB102200FB07F744EA39
S31500002E400244A7420ED92C1900F1FF322CBF4FF0D5
S31500002E50010E4FF0000EA74203D9BEF1000F00F09D
S31500002E60D2801046E41B40EA0C4099E7C1F12005E8
S31500002E708B400CFA01F400FA01F922FA05F72CFA54
S31500002E8005FC8A401F4320FA05F3380C23431FFA3A
S31500002E9087FE1C0CBCFBF0F800FB18CC44EA0C4483
S31500002EA008FB0EFCA4450ED93C1908F1FF3A2CBFCD
S31500002EB04FF0010B4FF0000BA44503D9BBF1000FF7
S31500002EC000F0B880D046A4EB0C041FFA83FCB4FBD8
S31500002ED0F0F300FB134403FB0EFE4CEA0444A64544
S31500002EE00ED93C1903F1FF302CBF4FF0010C4FF007
S31500002EF0000CA64503D9BCF1000F00F09F800346E5
S31500002F0043EA0840A4EB0E04A0FB02EC64457346BA
S31500002F10E04602D307D1F14505D2BEEB02036CEBC6
S31500002F20070C0138E0465EB1B9EB030264EB080416
S31500002F3004FA05F522FA01F3CC401D43C6E9005414
S31500002F40002132E742082F464B08AC4642EAC172DE
S31500002F50AE46C407110C92B241EA034142EA01426D
S31500002F60B1FBF5F1B3FBF5F01F23A2EB0C0241EA2E
S31500002F70004142E79D40C3F1200299409C402CFA53
S31500002F8002FC4FEA154E20FA02F2AFB2BCFBFEF885
S31500002F900A430EFB18CC110C41EA0C4108FB07FC56
S31500002FA08C4550D9691808F1FF302CBF4FF0010944
S31500002FB04FF000098C4502D9B9F1000F30D0A1EBD2
S31500002FC00C01B1FBFEF808FB07FC0EFB181192B2D0
S31500002FD042EA0142624534D2AA1808F1FF312CBFF9
S31500002FE04FF001094FF000096245BED2B9F1000F5A
S31500002FF0BBD1A8F102012A44B7E7841A6CEB03029D
S3150000300001201746E7E62C4402382BE7ACF1020C08
S315000030102A440CE702392A44A5E62C440238BAE6CB
S31500003020A5EB0C0CA8F102006144B1FBFEF808FB0D
S3150000303007FCCAE7A8F102083C4444E7023B3C44CB
S315000030405EE7414691E7A1EB0C014046B1FBFEF875
S3150000305008FB07FCB9E700BF704700BF08B5064B81
S31500003060044613B10021AFF30080044B1B6803B183
S315000030709847204607F006FC000000008413002055
S3150000308070B50D4B00260D4D5B1B9C10A64209D159
S315000030900B4D09F055FA0B4B00265B1B9C10A64204
S315000030A005D170BD55F8043B01369847EEE755F853
S315000030B0043B01369847F2E7E0240020E024002094
S315000030C0E0240020E4240020014808F0B2B800BF44
S315000030D088130020014808F081B800BF881300203B
S315000030E0014800F053B800BF881300200A46014685
S315000030F0014800F07BB800BF88130020014800F0AB
S31500003100B5B800BF881300201FB50A79064B029296
S315000031100A6808310192022200920CCB08F066F987
S3150000312005B05DF804FB00BF04C9000030B50B799B
S3150000313085B00333029301F14403019302230C4645
S315000031400546114A009314310CCA08F04FF9238A38
S3150000315004F12C010293E36828460193237A009335
S3150000316094E80C0008F042F90546237AA4F84500D5
S315000031702279216884F8443004F1470007F0ECFF17
S31500003180284605B030BD00BFFCC8000038B505466E
S31500003190124B134C94E8030083E8030019462846B3
S315000031A0FFF7B2FFD4E9020110220E4B83E80300B9
S315000031B0194628461A72FFF7B9FFD4E9040102221C
S315000031C0094B18341A7283E80300DC601946284656
S315000031D01A82BDE8384008F00AB800BF8C140020F7
S315000031E010C900003414002008140020F8B5044665
S315000031F00D4B0E4D0F46D5E9070183E8030019462E
S3150000320020461646FFF780FFD5E909010222084B42
S315000032101A7283E80300DF60194620461E82BDE865
S31500003220F840FFF783BF00BFE813002010C9000075
S315000032309013002010B50C4630B907F0F5F8034B93
S31500003240186023600423A380002010BDDC16002034
S3150000325010B50C4630B907F0E5F8034B186023604B
S315000032600423A380002010BDE01600202DE9F743BB
S3150000327006464FF00809404C404B414F94E8030086
S3150000328083E8030019463046FFF73EFFD4E9020102
S3150000329087E8030068463B4987F8089007F0A2FFD5
S315000032A0DDE9000107F10C0383E8030039463046E7
S315000032B0FFF73CFFD4E904010C234FF00208324F1C
S315000032C087E80300684631493B7207F08BFFDDE96A
S315000032D0000107F10C0383E8030039463046FFF787
S315000032E025FFD4E906012A4B2A4A83E8030019463A
S315000032F0304683F80880DA60A3F81090FFF716FFCF
S31500003300D4E90801244B254A254FDA60012283E8D7
S315000033100300194630461A8283F80880FFF706FF35
S31500003320D4E90A0187E8030068461E4987F8088041
S3150000333007F058FFDDE9000107F10C0383E80300FD
S315000033403946194F3046FFF7F1FED4E90C0187E8FC
S3150000335003006846154987F8088007F043FFDDE952
S31500003360000107F10C0383E803003946304603B039
S31500003370BDE8F043FFF7DABE4CC90000BC160020DA
S315000033806416002073B200000C1600205BB2000029
S31500003390B415002043C900005C15002042C9000096
S315000033A00415002051320000AC1400203532000014
S315000033B07FB500230130CDE9043380B2054BCDE95A
S315000033C00101694604200093039208F030F807B023
S315000033D05DF804FB532400201B22014B1A80704722
S315000033E02C240020064B10B401241A7100221C70F4
S315000033F058705980042011465DF8044BFFF7D8BF7A
S31500003400532400200322044B1A700022A3F8010063
S3150000341011460220FFF7CCBF5324002082B00DF1E5
S31500003420080C0CE90C00064B0522587003201A7094
S3150000343059809DF80420009902B0FFF7B9BF00BF7C
S31500003440532400200722054B1A700022A3F801001E
S31500003450A3F8031004201146FFF7AABF5324002047
S315000034600A460B21024B197001460020FFF7A0BF48
S31500003470532400201322034B1A70002211461046D3
S31500003480FFF796BF5324002010B40924044B1C7088
S31500003490941C5C7058805DF8044B0320FFF788BFCE
S315000034A05324002030B40C46112511461A46054B0C
S315000034B01D70151D5D7058809C80052030BCFFF77F
S315000034C077BF00BF5324002038B50023074D0139CC
S315000034D089B204466B8000F03BF8024628B1698841
S315000034E02078BDE83840FFF77DBF38BD2C2400208A
S315000034F0014610B500B3114A106883888B421BD36E
S31500003500938800248B4281BF0123006893809060DA
S31500003510906820B974B94FF6FF73938004E099421E
S3150000352003D10CB19060918010BD01330124006875
S315000035309BB2EEE79060EEE70020F5E7E416002088
S315000035404FF6FF72014B18609A807047E416002010
S315000035502DE9F04704780646122C0D4688B017D898
S31500003560012C18D9A31E102B15D8DFE813F016006E
S3150000357014002700140047001400D3001400800034
S31500003580140014001400140014000B011400A5000C
S31500003590522C00F0AE8006242CE0022940F048812F
S315000035A0B0F80140B4F5007F28BF4FF40074204600
S315000035B0FFF728FF9F4B1C8000241BE0042919D12C
S315000035C0B0F8017006ADBEB22946304607F08DFE52
S315000035D0044618B1974B5F800A240BE09DF81C3017
S315000035E03146022B18BF022095E80C0008BF0120C7
S315000035F0FFF714FF204608B0BDE8F08702248D1FB0
S3150000360000F10508C31DADB2019500938DF8144075
S31500003610CDF81080B0F803104246059BB0F80100C3
S3150000362007F070FE4FF6FF77B842054606D1B2782E
S31500003630737843EA02237F4A5380CDE70023CDE91E
S3150000364000338DF81C40CDF81880441C08AB394671
S3150000365013E90C00A0B207F055FE0146B8421CBFA4
S3150000366000F1FF3189B22846FFF7ECFEA4E70229F4
S3150000367040F0DE80B0F8010007F095FE0446B6F88B
S3150000368001306C4D98B20CB16B80B3E72B882146A4
S31500003690013BADF8103006AA04AB07F096FE0446CF
S315000036A020B17378B27843EA0223EDE7BDF8101033
S315000036B00698FFF7D5FE9DE70821B0F8010007F050
S315000036C072FE0446B6F8013098B214B1594A5380D6
S315000036D090E7AB1E21469BB2F21C07F04BFE044658
S315000036E020B17378B27843EA0223EFE7FFF7C2FE10
S315000036F062E70421B0F8010007F055FE01460028F4
S315000037007FF45AAFAB1EB6F801009BB2F21C07F06D
S3150000371031FE51E70D1FADB2022D02D0102D40F043
S3150000372087800024CDE90044731D06938DF81C5054
S3150000373008AB13E90C00B6F80310B6F8010007F061
S31500003740E1FD4FF6FF73984207463A4D05D173786F
S31500003750B27843EA02236B803EE72B882146043B7E
S31500003760ADF80E3004AA0DF10E0307F02EFE044646
S3150000377008B16F803EE73846BDF80E200499FFF782
S3150000378083FE37E70D1FADB2022D01D0102D4FD1AC
S315000037900024CDE9004406F1050AEDB28DF8145077
S315000037A0CDF810A05246059BB6F80310B6F80100F6
S315000037B007F0A8FD4FF6FF7948450746DFF8748005
S315000037C006D17378B27843EA0223A8F8023003E7F9
S315000037D0CDE900448DF81C5006ACCDF818A0013098
S315000037E094E80C00494680B207F08CFD0546B8F80F
S315000037F000304845A3F1060318BF00F1FF35224605
S31500003800ADF80E304FF0000138460DF10E0318BF2B
S31500003810ADB207F0DAFD044610B1A8F80270E9E689
S3150000382029463846BDF80E30069AFFF73BFEE1E61C
S315000038300424DFE62C2400200022014B1A60704786
S31500003840F016002003291FB503460A461CD9018835
S31500003850081D824218D304D85888042805D00628A3
S3150000386007D0012005B05DF804FB181DFFF72CFEFC
S31500003870F7E70023CDE90233044B694600930223A0
S31500003880019307F0D4FDECE70020EBE7D8240020F5
S31500003890002213B511460DF1070000F05FF89DF800
S315000038A007300C4C0BB10023236021680A4BC1F58D
S315000038B0017292B219440DF1070000F04FF8236827
S315000038C0C11805482160FFF7BDFF08B1002323603A
S315000038D002B010BDF0160020F416002010B5044604
S315000038E04FF4807300210E4A0E4807F02CFE4FF469
S315000038F0807300210C4A0D4807F025FE2046FCF790
S315000039001FFC07F0E8FD00F01FFC07F0CFFC830763
S3150000391005D500F0E3FABDE8104000F07FB910BD10
S31500003920281A00201019002028190020F818002055
S3150000393008B513460A460146024807F0C2FEC0B261
S3150000394008BD00BF1019002008B5034807F004FEA3
S31500003950003818BF012008BD10190020F8B50E4622
S315000039601746044608F0BFFD214605463B4632464B
S31500003970044807F0A6FE0446284608F0AFFD204698
S31500003980F8BD00BFF818002008B5034807F0E4FDAD
S31500003990003818BF012008BDF8180020F8B50E46FB
S315000039A01746044608F09FFD214605463B4632462B
S315000039B0044807F051FE0446284608F08FFD2046CD
S315000039C0F8BD00BF1019002010B50C46014604488A
S315000039D007F0A1FEA04234BF0020012010BD00BFA9
S315000039E0F8180020F8B50F46114606461546FFF7AB
S315000039F0EBFF044628B12B463A463146024807F00B
S31500003A002BFE2046F8BD00BFF818002010B5034C69
S31500003A10A07900F0DDFC0023236010BD281B0020E8
S31500003A2008B5044800F06AFC0023024A42F8063C46
S31500003A3008BD00BF2E1B002010B5074CB4F80710B8
S31500003A40A07900F08DFCB4F80D10B4F8090000F070
S31500003A509BFC0023236010BD281B0020014B99808E
S31500003A6018607047281B00200022014B1A6070471F
S31500003A70281B0020034A13681BB19288824200D19A
S31500003A8018477047281B0020014B187018467047CE
S31500003A905A240020162808BF1320022110B5084C0E
S31500003AA060702046217000F087FC00F09DFD054BFC
S31500003AB0054A05301A60627898809A7110BD00BF79
S31500003AC05A240020281B00200D3A0000037810B568
S31500003AD00C2B04460AD80C2B0AD8DFE803F03D2944
S31500003AE05409090909095D0909091500142B65D04E
S31500003AF0204600F099F8002844D1072223783C4854
S31500003B000221027043700FE00C234FF0FF32384958
S31500003B100B708A70012302224B70CA700B710A4621
S31500003B20002310464B710621BDE8104000F044BC4E
S31500003B30C17983792F4A43EA0123938013462E499C
S31500003B4043F8061BD0F80110C2F80610B0F805209D
S31500003B509A80C2799A7115E0C27A837A254943EA36
S31500003B6002238B800B46254A43F8062BD0F801200A
S31500003B70C1F80620D0F805205A60B0F809201A814D
S31500003B80C27A9A7210BD00F02FFD1A4B1C4A0530FE
S31500003B901A6098806278DDE700F06AF90346D4F887
S31500003BA0012009210240124862F307030246C0F8C9
S31500003BB00130002302F8011B5360B5E7B0F803108B
S31500003BC0B0F8010000F0EEFB1523094C00216FF060
S31500003BD004006FF02702237007236070A1706071E4
S31500003BE0A17120460921E2702371E27123729BE7DD
S31500003BF05A240020281B0020213A0000393A0000F0
S31500003C000D3A000008B5044B987900F0C5FBBDE8F5
S31500003C100840FFF729BF00BF281B00200122014BE7
S31500003C201A70704766240020144B70B51E7805463E
S31500003C302EB10378162B04D0182B13D0002630464D
S31500003C4070BD8378447817201C4004F00304022CCE
S31500003C5018BF0124FFF718FF02214470847007F093
S31500003C6037FCECE7B0F803100548FFF7F7FED5F888
S31500003C700120044BC3F80620E1E700BF66240020BC
S31500003C80053C0000281B002013B50D4B01281B889E
S31500003C900C4CADF80030ADF8043002BF02238DF8AD
S31500003CA0003004236946206808BF8DF8043007F009
S31500003CB0B5FD206801A907F0C7FD02B010BD00BF21
S31500003CC0ACC90000701B002030B5224C87B02569B6
S31500003CD02DB322F480410839194322D1032101AAC8
S31500003CE0206807F02AFE636860615B7A022023760B
S31500003CF09DF8043004F11801DA1F53425341627EE5
S31500003D0063F30002039B6276E361BDF806306383CA
S31500003D102369984701220021206807F014FE07B0A6
S31500003D2030BD02F17F41194306D1002101202B4607
S31500003D3007B0BDE830401847A2F5805119434FF04F
S31500003D40000103D0A2F580421A4301D10320EEE719
S31500003D50FF20ECE7701B002007B500220B460092FF
S31500003D600A4601460348006807F0D1FD03B05DF836
S31500003D7004FB00BF701B0020F0B50446144E154A24
S31500003D807368807A5B7A85B0D75C0D46FFF77CFF57
S31500003D90237A3068022B0CD1002339461A4607F0E5
S31500003DA0E1FC90B10021FF202B4605B0BDE8F040B4
S31500003DB0184700222168039202918DF80C3039468B
S31500003DC0009202AB07F0D0FCEBE7356105B0F0BD21
S31500003DD0701B002084C900002DE9FF4104461B4DDD
S31500003DE01B4A6B68807A5B7A0E46D75CFFF74CFFFE
S31500003DF0237A4FF00108022B08BF01238DF8043007
S31500003E00636818BF226803F1640308BF00220293A7
S31500003E10637A0024394600928DF80C306A462346B0
S31500003E2028688DF80D808DF80E4007F09FFC074638
S31500003E3042462146286807F086FD2FB12146FF201D
S31500003E40B04704B0BDE8F0812E61FAE7701B002090
S31500003E5084C900000022034B03211A61186801225D
S31500003E6007F07BBC701B002000487047781B0020C1
S31500003E70014B188C704700BF701B002010B5094C11
S31500003E8086B06A466169206807F059FD638B69460A
S31500003E9003332068ADF8043007F053FD009806B0F0
S31500003EA010BD00BF701B00201FB50022CDF80A20F0
S31500003EB0ADF80E204268084B0092026858600192E5
S31500003EC0427A69461868ADF8082007F07BFD00F0D5
S31500003ED00DF805B05DF804FB701B0020024A138C38
S31500003EE043F4807313847047701B002038B50D4C63
S31500003EF0238CDB050CD563680B4D1B7A2A789A4216
S31500003F0006D0012B05D0022B07D063681B7A2B70D5
S31500003F1038BD206800F018FEF7E7206800F01CFEA8
S31500003F20F3E700BF701B00206724002010B50024B3
S31500003F30064B1C60064B1C7007F0F1FAB0FA80F3D2
S31500003F40044A5B091370044B1C7010BD941B0020BF
S31500003F506A240020692400206824002010B5074B3D
S31500003F601C782CB9064B1B7833B107F0E0FA0446EF
S31500003F7000F066F8204610BD8124F9E76A24002087
S31500003F806924002038B50A460F4903460978C1B1AD
S31500003F900E49087850B90E4C24783CB90D4C20686F
S31500003FA01518B5F5806F02D98220087038BD1946FC
S31500003FB0094B184407F0D0F82560BDE8384000F0FA
S31500003FC00DB88120F2E700BF692400206A24002092
S31500003FD068240020941B0020981B002038B5134B42
S31500003FE0134D1A782968022A0ED0032901D8002019
S31500003FF038BD104A1068104A904203D084200F4BF7
S315000040001870F5E702221A700A48FCF709FA044606
S315000040102A680749074807F05FFA002CE7D041F203
S3150000402007039C42E3D08520E9E700BF692400200E
S31500004030941B0020981B0020EB17A6036A2400207F
S315000040400022014B1A707047692400201FB5124CDC
S31500004050637A20460133DBB2282B28BF25236372FF
S31500004060FFF722FF0023CDE90233E368627C019368
S315000040700123617DD207094801F102018DF80C3058
S3150000408048BF8DF80E30FFF767FE054901A8FFF718
S3150000409073FE04B010BD00BF981F0020AC1F0020A7
S315000040A0A5400000022810B51BD002D8012805D073
S315000040B0FEE7032843D0FF2841D0F9E7214C637C73
S315000040C0990707D5FFF7C6FEFFF7C0FF637C23F00D
S315000040D002036374637CDA0730D4BDE81040FFF74F
S315000040E0B5BF4B78DB072AD54C68217801F00F0362
S315000040F0032B11D0052B22D1C90904F1080007F0C2
S3150000410015FBD8B1FFF7A6FEFFF7B8FE014620461D
S31500004110BDE8104000F06EBAC90904F1080007F0C6
S3150000412005FB58B1074C94F83D1004F13C000231F0
S31500004130FFF712FE637C43F00203637410BDFFF7C2
S3150000414089FECAE7981F00205A22002108B50948AF
S3150000415006F0FAFF42F210720649C1F80220064A3A
S3150000416041F80A2C054A41F8062C42F2015221F880
S31500004170022C08BDA21F0020D6BE898E55555500BB
S3150000418038B50446FFF766FE002C3FD0204C257C50
S31500004190627CB5FA85F35B0963F300026274FFF78C
S315000041A063FE837905F00F05C3F3000345EA831523
S315000041B0237D23F04F031D43637D25750BB906232D
S315000041C063750368C4F816308288124B9A80FFF72D
S315000041D04BFE837994F83C20C3F300039B0143F024
S315000041E0040322F04F02134384F83C3094F83D3028
S315000041F013B9062384F83D300368C4F83E3082883C
S31500004200054B9A80BDE83840FFF720BF38BD00BF98
S31500004210981F0020AE1F0020D61F002020290A4626
S3150000422008B509D8054B06315975014603F11C003E
S3150000423006F092FF002008BD1220FCE7981F002020
S3150000424020290A4608B50AD8064B063183F83D10E0
S31500004250014603F1440006F07FFF002008BD12204E
S31500004260FCE700BF981F00200A20D0B50B4CE38C5A
S31500004270584305F017FE0646A08C0F4605F012FEC1
S315000042800022074B05F078FE02460B4630463946BB
S3150000429005F09CFF06F082F82083D0BDFC200020AC
S315000042A00000F43F1FB5134CA37E5A061FD423F01B
S315000042B0070343F001032089A376FFF7DBFBA37A0C
S315000042C004F10C00234493F82A306375FFF7ECFDE4
S315000042D0D4E90032A3EB520103EB520302934FF4ED
S315000042E08033019101A804490393FFF775FD04B0DB
S315000042F010BD00BFFC2000203D44000000221346F4
S3150000430030B58BB0D910415C03F007042141CC07CE
S3150000431042BF02F12801694401F8283C03F1010378
S3150000432048BF0132252BEDD100230C4CD910415C3E
S3150000433003F007052941C9075FBFB3FBF2F102FB92
S315000043401131283169444CBFD9B211F8281C013308
S31500004350252B04F8011FE9D10BB030BD2521002023
S3150000436010B540F2E244074A6043136800F58070D6
S3150000437004FB013303EB500313605368034453609B
S3150000438010BD00BFFC200020024B9884D984FFF7A3
S315000043906BBF00BFFC200020014B1875704700BFA3
S315000043A0FC200020C908814228BF0146014B19851F
S315000043B0704700BFFC200020044B5A6D22B9586597
S315000043C0A3F858100120704700207047FC200020F9
S315000043D0034A937E43F04003937607F077B800BF15
S315000043E0FC20002010B5144CA37E5B0623D4FFF7F7
S315000043F031FD40F2E241A28C236801FB023394F8BE
S315000044004F102360A37A0B442521B3FBF1F001FB87
S3150000441010330A21A372238901332381636801FBC8
S3150000442002336360238B5A1E228323B9BDE81040F2
S315000044300820FFF7CDBF10BDFC2000200228F7B5ED
S315000044400E460BD003D8012800F0BC80FEE70328F7
S3150000445000F0BE80FF2800F0BB80F7E74D78604C87
S3150000446015F0010538D04F68A27E3B78C3F30013E0
S3150000447063F382023B78A276C3F3C001C2F3001253
S31500004480914278D103F00303022B72D0032B07D09D
S31500004490012B70D10020797819B1FFF795FA0546FE
S315000044A02946A27E3878C2F3C003C0F38000984242
S315000044B008D083F00103DB0043F0200322F028023A
S315000044C01343A3763DB1A37EC3F3001282F001022B
S315000044D062F30413A3760D46A37E424F13F0200F1A
S315000044E011D0616D23F02003A376002946D03B78D6
S315000044F094F8582043F00303B81C3B707A7006F01A
S315000045002BFE00236365FFF71FFAA37E797860F31D
S315000045104103C3F3C002A376C3F300139B0043EA2F
S31500004520C2033A7843EA001322F01C0203F01C038C
S3150000453002311343C9B22B483B70FFF70DFCA37E33
S315000045407668D90709D523F00103A37600236360B3
S31500004550FFF794FC2060FFF787FE45B1337803F040
S315000045600303022B26D0032B1CD0012B21D003B032
S31500004570F0BD28468FE700210D4692E794F82820E3
S31500004580B91C0DF10700FFF7D3F948B19DF80730C4
S315000045900133DBB23A78787063F301023A70B2E71E
S315000045A00123F7E77178B01C03B0BDE8F040FFF7D0
S315000045B08DBA002528467278B11C03B0BDE8F040DC
S315000045C0FFF710BA064B9B7E9A07D0D45B07CED472
S315000045D0FFF708FF03B0BDE8F040FFF763BE00BF7A
S315000045E0FC200020FC1F0020014B1889704700BFEB
S315000045F0FC200020F8B5224D04460E465C22002120
S31500004600284606F0A1FD2023AB7605232B83627E88
S31500004610237E012743EA0223AB84627F237F04F1D2
S315000046201E0043EA0223EB8494F82330C3F3040309
S3150000463085F84F3094F82330C3F3421385F8503091
S315000046401B232B85FFF75AFED4F80E30E27CEB6075
S31500004650A37C2E6043EA0223227D2F7543EA0243A0
S315000046602B6195F84F30607DAB72E18A3944FFF7D4
S3150000467077FEFFF717FE204606F026FF3846F8BD00
S31500004680FC2000202DE9F843DFF860900646D9F8B3
S31500004690008008461746B8F1000F03D00E242046C6
S315000046A0BDE8F88306B3336801331DD1E1B100F0EC
S315000046B027F805460028F1D0C9F8000000F086F872
S315000046C0284607F064F8044640B14046C9F8008021
S315000046D000F07CF8284607F055F8E0E73560002F33
S315000046E0DDD02846B847DAE72124D8E7582100204C
S315000046F0024B1868003818BF012070475821002067
S31500004700F8B5044607F0EFFE002607460E4B1B6879
S3150000471093B19E68AEB196F82420D20711D43546DF
S315000047200FCC0FC50FCC0FC523682B6096F824302D
S3150000473043F0010386F82430384607F0CFFE3046B2
S31500004740F8BD1B68E4E700BF94240020431E033332
S3150000475006D8044B984228BF1846642838BF642000
S31500004760704700BF40420F0038B505460C4641B1C0
S315000047700B6833B11B68013303D0CB680BB18B6870
S3150000478043B902F08FF800209122412100F0C6F9CA
S31500004790212038BD084602F0F5F80023094A85F8BD
S315000047A03C31C5E93A4313605360636943B1064A35
S315000047B042211068B322C31A5842584100F0AEF99C
S315000047C00020E6E788240020A023002010B5044638
S315000047D018B9054B054A136010BD00F005FAD4F868
S315000047E0F430002BF6D1F4E751B8000098240020ED
S315000047F008B502460868FFF7A9FF08604868FFF792
S31500004800A5FF48608868FFF7A1FF8860C868FFF7C2
S315000048109DFF0B69C860581C03D00B48834228BF14
S3150000482003460B614B69581C03D00748834228BFD7
S31500004830034688694B61FFF789FFBDE80840886138
S31500004840104600F013BE00BF40420F00D0F8EC3017
S315000048502DE9F04105460C4613B1838D8B424ED0AF
S31500004860D5F8E830002B4DD09E68002E4AD0D86887
S31500004870002847D0013800B200281DDB002107E0E0
S31500004880128A0CF10101A24219D209B2884213DB45
S315000048900B1803EBD3735B1003EBC30206EB820228
S315000048A0B2F80EE01FFA83FCA6450CF1FF3EE7D9ED
S315000048B00FFA8EF08842EBDA2120BDE8F0814FF640
S315000048C0FF729445F8D09BB203EBC30306EB830655
S315000048D02846B6F9122095F83011D5F8FC80FDF778
S315000048E099FE0746B8F1000F04D000233246284649
S315000048F01946C047AC85C5F8EC6085F839710020CB
S31500004900BDE8F0810E20BDE8F08100BF2DE9F0473B
S3150000491082B004460E46904600F026FE00286FD16F
S31500004920504D2F68D4F8E8A0D4F8EC9017B157454D
S3150000493079D00027AE6001F045FA0128064604D07A
S3150000494001210022084606F051FF2B68DAF8001014
S31500004950D9F8002013B1186888426ED0204607F0B7
S315000049605DFAB7B1B8F1000F13D1204601F02AF86D
S315000049700546D4F89430002B3BD1012E05D025B145
S31500004980394B002103205B689847284602B0BDE8F2
S31500004990F087364BC5F800A01A78C5F804908DF854
S315000049A007808ABBD4F8FC50002D4DD01146204616
S315000049B00DF10703A847204601F004F8054617B194
S315000049C0B8F1000FD5D0B5FA85F040F20542332193
S315000049D0400900F0A3F84146204601F011F9244BA6
S315000049E049461B68054620469847D4F89430002B64
S315000049F0C3D000224FF40073204600F005F9BCE74F
S31500004A000023184D6B608CE7D4F8EC30B4F94410F1
S31500004A1023B1B3F912309942A8BF1946424620463F
S31500004A2000F046FFC7E76F68002F83D04F4580D15F
S31500004A30AB68B34214D001277CE7696811B10968F5
S31500004A4091428ED0596889E794F8281094F8393144
S31500004A504246994228BF1946204600F0F7FEAAE7CB
S31500004A60002592E788240020A0240020DFC700004C
S31500004A7098240020F8B505460E4607F034FD314669
S31500004A8007462846FFF7E2FE044620B1384607F0FF
S31500004A9025FD2046F8BD01F06DF92246314628462F
S31500004AA0FFF734FF0446384607F018FD2046F8BDE8
S31500004AB070B50D46044607F032F901F041FF094B87
S31500004AC01B784BB9D4F8FC6036B129462046B4466B
S31500004AD0BDE870401A46604729462046BDE870404A
S31500004AE007F022B9DFC70000024B1860024B1960BD
S31500004AF0FEE700BF5C2300209C24002038B5044D4F
S31500004B00044C054B286021601A60FFF7EDFF38BDA5
S31500004B105C2300209C2400206023002010B550B99F
S31500004B200548064B0160064802601868054B186088
S31500004B301868FFF7E3FF10BD9C24002058210020D1
S31500004B40602300205C230020024B0022196807F036
S31500004B507EB900BF6CFA0000024B0122196807F00B
S31500004B6076B900BF7C230020024BD868C0F30360EF
S31500004B70704700BF000002B8F8B504460F46164657
S31500004B8007F0B1FC0546A047044620B1284607F0C9
S31500004B90A5FC2046F8BD04F039FE04220549D1F8EB
S31500004BA0EC3E23EA07033343C1F8EC3E024B1A649A
S31500004BB0ECE700BF003000B0002002B800F0180398
S31500004BC0182B0AD003070AD410F0100F40F2011375
S31500004BD008BF0023034A936770470023FAE70123BF
S31500004BE0F8E700BF003F00B038B10368044A002B65
S31500004BF008BF1346034A13607047014BFAE700BF2C
S31500004C00E5B90000AC24002010B4D0E9524122409E
S31500004C100B4052EA030104D003495DF8044B0968CE
S31500004C2008475DF8044B7047AC2400200F2938B5BF
S31500004C3005460C460ED801F0C5F801280CD1074AE6
S31500004C402846536E23F00F032343536607F0F5F807
S31500004C50002038BD2120FCE70220FAE7003F00B023
S31500004C6008B50E4B1A6C12F0A00F13D15B6C5B07E4
S31500004C7012D40B4BD3F8EC3E23F07F4323F0FF0313
S31500004C8053B1FFF771FF6FF4905343FA00F000F051
S31500004C90010008BD0020FCE70120FAE7000002B889
S31500004CA0003000B070B50D46064620B91A4B1B6899
S31500004CB0EBB10E201AE001F085F8012827D1174B39
S31500004CC0D6F8F00093F9004007F02CF80022C4F162
S31500004CD02704241A641BC4F11C03002BB8BF5B42D3
S31500004CE0232B16DC3AB10D4B1D70002070BD01223E
S31500004CF0C1F12704EFE786F8265007F0F4FB0546D6
S31500004D0060B200F0FFFC284607F0E8FBEDE7022062
S31500004D10ECE72120EAE700BF582100206B240020A1
S31500004D2008B506F060FE8022024B5867024B1A61F6
S31500004D3008BD00BF003F00B0000002B890F8253063
S31500004D40023B022B05D84B7C2BB1012B05D0022B45
S31500004D5005D006F0C0BE03487047034870470348B5
S31500004D60704700BF20A1070048E8010040420F003D
S31500004D700A78022A11D0101F4242424152004B7853
S31500004D801201022B0BD0191F4B424B415B00054908
S31500004D90054842EA8312FFF7EFBE0122EFE701233F
S31500004DA0F5E700BFF0FFFF000D5E00000B78022B59
S31500004DB010D0181F434243415B004A78022A0BD0A9
S31500004DC0111F4A424A4152000F21044843EA820217
S31500004DD0FFF7D2BE0123F0E70122F5E7395E0000B6
S31500004DE0D0F8B03010B5994204460ED0C0F8B010D5
S31500004DF001F07EFE0649A4F834010123054AD1F8E4
S31500004E00FC1004F5827003F0EFF9002010BD00BF1E
S31500004E10004F00B0A43F00B02DE9F74F04468B4683
S31500004E2015461E46FFF71CFF28B3A38A1BB3204670
S31500004E3006F095FD78B91EB10E2003B0BDE8F08FDF
S31500004E406B4BD3F8EC3E03F03002102AF4D003F09B
S31500004E50C003402BF0D0674F03F01EF97B69DE07D5
S31500004E60EAD507F040FB0646032002F0F1F920B12F
S31500004E70304607F033FB0220DFE77A6912F0060AB4
S31500004E80F6D1304607F02AFB594B4FF40061204615
S31500004E90D3F8EC9ED3F8CC8E04F014FE48B14FF450
S31500004EA000760121544F524608463E6406F09EFCA9
S31500004EB03E6459462046FFF7DDFD4D4BC3F8EC9E98
S31500004EC0C3F8CC8E0028B8D194F82430980601D4C3
S31500004ED0002D4DD0C5F3400003F08AFC022315F4E3
S31500004EE0807F1FBF454A002113644FF03A420BBF33
S31500004EF0414A91611364536304F088FC4FF4806364
S31500004F0015F0040F14BF3E4A3E4A3B4E536204233B
S31500004F1028463364FFF752FE204606F004FE38B1F9
S31500004F204FF4807315F0010F16BF344A33641364CF
S31500004F30A90647D54FF6FF72E38F93420FD0324A48
S31500004F403249526E100CC2F301120132B3FBF2F376
S31500004F5008802B4A2B492E481B0448665366003DA1
S31500004F6018BF012594F8243065F3451384F82430DE
S31500004F70204606F05FFFF0B1204606F0D4FDD0B122
S31500004F804FF40031204604F09DFD431C03229BB2E2
S31500004F9001A9204806F0D6FF9DF804209DF80530AB
S31500004FA002F00701052916D112070ED443F48073C7
S31500004FB0194AC2F8D43040F2366003B0BDE8F04F6B
S31500004FC001F0BEBC00F0B6FEC9E713F0040F09D12C
S31500004FD09DF80630EAE703F03002202A05D113F0E7
S31500004FE0010FF4E74FF48073E2E79DF80630DFE740
S31500004FF0003000B000C001B8002002B8001002B8AE
S31500005000005001B8006001B8004001B8D02400206B
S315000050100000FFFF0C0000BA003E00B02DE9F74F7C
S315000050200B460746154619B9212003B0BDE8F08F97
S31500005030002AF9D0032905D8002201F081FB034696
S315000050400028F1D01C889A78B4F5804F02F0070149
S3150000505080F0E980A1F1070C187993F805A0DE88A5
S31500005060DCF1000343EB0C0305292B7394BF0023EB
S31500005070C2F30013C2F3801C6B73930985F810C04A
S3150000508003F00203C2F3C00C43EA0C03C2F340125E
S31500005090E8746B74AA74D7F89C30AE82D80600F117
S315000050A0AD800639012900F2A9800020B7F81280E8
S315000050B0D7F81C9008F1FF385C4B0A3C04EA080458
S315000050C05B6D19F804300134802B1CBF323BDBB218
S315000050D004EA0804AB73E31D03EA08035A1CA8603C
S315000050E002EA080219F8036019F8022097F8253039
S315000050F046EA0226FF2B36B24AD1631D03EA0803AD
S3150000510019F803B0013303EA080319F803303846E7
S31500005110019306F0CAFC88B1019B4BEA032B42F2CD
S3150000512010732BF0010B4FEA0B4B4FEA1B4B03FBA3
S315000051300BFB6423B0FBF3F3BBFBF3F0F204A860B4
S3150000514055D5D7F8F03013B11B68022B05D841F2BC
S315000051507C324C210020FFF7E1FCD7F8F030C6F393
S315000051600B0093F82430C0000BB1B0FBF3F082457E
S3150000517042D838B1CAEB0A2ABAFBF0FA6FEA0A0A31
S315000051805FFA8AF0D7F8F83013B195F90E10984700
S31500005190631CE87303EA080319F80340013303EAC2
S315000051A0080319F80320013303EA080344EA02243A
S315000051B019F80320013303EA080319F8033044EA17
S315000051C0024444EA036416F4804306D0384600F0ED
S315000051D0F5F9B0FA80F35B095B00214638466A7C34
S315000051E003F0AAF8062328600020AB711DE719F822
S315000051F004004000C0B2C5E70020C3E70023EB73FC
S315000052000B4BDB691A0A1B0406D4D3B2323BDBB262
S31500005210AB7300232B60E7E762F0FF0352B28032E4
S31500005220F4D18023F4E70220FFE600BF004000B877
S3150000523000C000B8082310B1024A13647047024A3E
S31500005240FBE700BF001002B8002002B8054A12684A
S315000052501AB190F82A1119B91047084602F030BB66
S31500005260014870476423002000FEFFFF354B2DE9FF
S31500005270F7431C6801F4007900F00103174653EA6E
S31500005280090206460D4637D04FF000084BB30023FF
S31500005290002201200021CDF80480CDF8008004F022
S315000052A087F841462046FFF7D1FF01224146E085B7
S315000052B0DFF8A480104606F099FAD4F89C1094F80A
S315000052C0250002F067FBD8F8000000F061F94FF006
S315000052D0FF33C8F8003094F8243043F0040384F810
S315000052E02430B9F1000F07D00121204606F09FFFB8
S315000052F025F4007506430D432B4632462046FFF73C
S3150000530083FCFB070FD51049104A08680021136873
S31500005310116001210E4A117003B198470D4B00210F
S3150000532002205B68984717F00E0F08D04FF4EC7216
S315000053303B21002003B0BDE8F043FFF7EFBB03B00D
S31500005340BDE8F08358210020742300207823002034
S315000053506D240020A0240020A824002008B558228F
S315000053600021064805F0F0FE1022FF21044805F052
S31500005370EBFE04F0B1FB002008BD00BFF03E00B01C
S31500005380343F00B073B52D4A2D49137809784FF094
S31500005390FF350B4313700D23742280F83031A0F8CB
S315000053A020216D238222C0F80C31C0E944236423F6
S315000053B0C0E946336FF07B438362224B0026C3630A
S315000053C000F15003C3644FF6FF73044680F825309E
S315000053D003F58003C0E90C3580F82660C0F8B050AC
S315000053E0858503F075F82046FFF7B8FF94F9261077
S315000053F02046FFF757FC6023134A40F6FF71D3643B
S315000054004FF03A4211631167104A2946D36440228D
S315000054100F4B20461A64D4F89C2006F03AFB0E2364
S3150000542000220193009340F202231046194603F02E
S31500005430BFFF01F02DFB304602B070BD6E24002088
S31500005440DFC700000700FFFF004000B8005000B8AB
S31500005450002002B8044BD3F8EC3E13F0806F14BF63
S3150000546023200020704700BF003000B002462DE91F
S31500005470F843B0F8344100F58275FFF7EBFF0F688B
S31500005480D1F804807E1C08BFD2F80C718E6808BF64
S315000054900F60B8F1FF3F04BFD2F81881C1F804804D
S315000054A0731C48D1D2F81431D1F80CC08B60BCF112
S315000054B0FF3F47D1D2F81061D1F810E0D1F814C0FF
S315000054C0BEF1FF3F08BFD2F804E1D1F8189008BF3B
S315000054D0C1F810E0BCF1FF3F08BFD2F808C1CE60AA
S315000054E008BFC1F814C0B9F1FF3F08BFD2F81C913C
S315000054F0B9F1000F2DD1C0F164048C6117B16D2F85
